{
  "contractName": "WeaveChain2",
  "abi": [
    {
      "inputs": [],
      "stateMutability": "nonpayable",
      "type": "constructor"
    },
    {
      "anonymous": false,
      "inputs": [
        {
          "indexed": false,
          "internalType": "uint256",
          "name": "id",
          "type": "uint256"
        },
        {
          "indexed": true,
          "internalType": "address",
          "name": "actorAddress",
          "type": "address"
        },
        {
          "indexed": false,
          "internalType": "string",
          "name": "name",
          "type": "string"
        },
        {
          "indexed": false,
          "internalType": "uint8",
          "name": "role",
          "type": "uint8"
        },
        {
          "indexed": false,
          "internalType": "string",
          "name": "place",
          "type": "string"
        },
        {
          "indexed": false,
          "internalType": "string",
          "name": "log",
          "type": "string"
        }
      ],
      "name": "ActorCreated",
      "type": "event"
    },
    {
      "inputs": [
        {
          "internalType": "uint256",
          "name": "_price",
          "type": "uint256"
        },
        {
          "internalType": "string",
          "name": "_rawMaterial",
          "type": "string"
        },
        {
          "internalType": "string",
          "name": "_ipfs",
          "type": "string"
        }
      ],
      "name": "addRawMaterial",
      "outputs": [],
      "stateMutability": "nonpayable",
      "type": "function"
    },
    {
      "anonymous": false,
      "inputs": [
        {
          "indexed": true,
          "internalType": "address",
          "name": "actorAddress",
          "type": "address"
        },
        {
          "indexed": false,
          "internalType": "uint256",
          "name": "assetId",
          "type": "uint256"
        },
        {
          "indexed": false,
          "internalType": "string",
          "name": "log",
          "type": "string"
        }
      ],
      "name": "AssetAdded",
      "type": "event"
    },
    {
      "anonymous": false,
      "inputs": [
        {
          "indexed": false,
          "internalType": "uint256",
          "name": "id",
          "type": "uint256"
        },
        {
          "indexed": false,
          "internalType": "address",
          "name": "owner",
          "type": "address"
        },
        {
          "indexed": false,
          "internalType": "uint256",
          "name": "price",
          "type": "uint256"
        },
        {
          "indexed": false,
          "internalType": "string",
          "name": "message",
          "type": "string"
        }
      ],
      "name": "AssetInitiated",
      "type": "event"
    },
    {
      "anonymous": false,
      "inputs": [
        {
          "indexed": false,
          "internalType": "uint256",
          "name": "id",
          "type": "uint256"
        },
        {
          "indexed": false,
          "internalType": "uint8",
          "name": "oldState",
          "type": "uint8"
        },
        {
          "indexed": false,
          "internalType": "uint8",
          "name": "newState",
          "type": "uint8"
        },
        {
          "indexed": false,
          "internalType": "address",
          "name": "owner",
          "type": "address"
        },
        {
          "indexed": false,
          "internalType": "uint256",
          "name": "price",
          "type": "uint256"
        },
        {
          "indexed": false,
          "internalType": "string",
          "name": "message",
          "type": "string"
        }
      ],
      "name": "AssetProcessed",
      "type": "event"
    },
    {
      "anonymous": false,
      "inputs": [
        {
          "indexed": false,
          "internalType": "uint256",
          "name": "assetId",
          "type": "uint256"
        },
        {
          "indexed": false,
          "internalType": "address payable",
          "name": "seller",
          "type": "address"
        },
        {
          "indexed": false,
          "internalType": "address",
          "name": "buyer",
          "type": "address"
        },
        {
          "indexed": false,
          "internalType": "uint8",
          "name": "state",
          "type": "uint8"
        },
        {
          "indexed": false,
          "internalType": "uint256",
          "name": "price",
          "type": "uint256"
        },
        {
          "indexed": false,
          "internalType": "string",
          "name": "message",
          "type": "string"
        }
      ],
      "name": "AssetPurchased",
      "type": "event"
    },
    {
      "inputs": [
        {
          "internalType": "uint256",
          "name": "_assetId",
          "type": "uint256"
        },
        {
          "internalType": "uint256",
          "name": "_price",
          "type": "uint256"
        },
        {
          "internalType": "string",
          "name": "_threadType",
          "type": "string"
        },
        {
          "internalType": "string",
          "name": "_threadQuality",
          "type": "string"
        },
        {
          "internalType": "string",
          "name": "_ipfs",
          "type": "string"
        }
      ],
      "name": "createThread",
      "outputs": [],
      "stateMutability": "nonpayable",
      "type": "function"
    },
    {
      "inputs": [
        {
          "internalType": "uint256",
          "name": "_assetId",
          "type": "uint256"
        },
        {
          "internalType": "uint256",
          "name": "_price",
          "type": "uint256"
        },
        {
          "internalType": "string",
          "name": "_ipfs",
          "type": "string"
        }
      ],
      "name": "distributeThread",
      "outputs": [],
      "stateMutability": "nonpayable",
      "type": "function"
    },
    {
      "inputs": [
        {
          "internalType": "uint256",
          "name": "_assetId",
          "type": "uint256"
        },
        {
          "internalType": "uint256",
          "name": "_price",
          "type": "uint256"
        },
        {
          "internalType": "uint8",
          "name": "_dyeType",
          "type": "uint8"
        },
        {
          "internalType": "string",
          "name": "_pattern",
          "type": "string"
        },
        {
          "internalType": "string",
          "name": "_origin",
          "type": "string"
        },
        {
          "internalType": "uint8",
          "name": "_fabricType",
          "type": "uint8"
        },
        {
          "internalType": "string",
          "name": "_ipfs",
          "type": "string"
        }
      ],
      "name": "fabricWeaving",
      "outputs": [],
      "stateMutability": "nonpayable",
      "type": "function"
    },
    {
      "inputs": [
        {
          "internalType": "uint256",
          "name": "_assetId",
          "type": "uint256"
        }
      ],
      "name": "purchaseAsset",
      "outputs": [],
      "stateMutability": "payable",
      "type": "function"
    },
    {
      "inputs": [
        {
          "internalType": "address",
          "name": "_address",
          "type": "address"
        },
        {
          "internalType": "string",
          "name": "_name",
          "type": "string"
        },
        {
          "internalType": "uint8",
          "name": "_role",
          "type": "uint8"
        },
        {
          "internalType": "string",
          "name": "_place",
          "type": "string"
        }
      ],
      "name": "registerActor",
      "outputs": [],
      "stateMutability": "nonpayable",
      "type": "function"
    },
    {
      "inputs": [
        {
          "internalType": "uint256",
          "name": "_assetId",
          "type": "uint256"
        },
        {
          "internalType": "uint256",
          "name": "_price",
          "type": "uint256"
        },
        {
          "internalType": "string",
          "name": "_ipfs",
          "type": "string"
        }
      ],
      "name": "sellFabric",
      "outputs": [],
      "stateMutability": "nonpayable",
      "type": "function"
    },
    {
      "inputs": [
        {
          "internalType": "address",
          "name": "",
          "type": "address"
        },
        {
          "internalType": "uint256",
          "name": "",
          "type": "uint256"
        }
      ],
      "name": "actorAssetsByAddress",
      "outputs": [
        {
          "internalType": "uint256",
          "name": "id",
          "type": "uint256"
        },
        {
          "internalType": "uint256",
          "name": "time",
          "type": "uint256"
        }
      ],
      "stateMutability": "view",
      "type": "function"
    },
    {
      "inputs": [],
      "name": "actorIdCounter",
      "outputs": [
        {
          "internalType": "uint256",
          "name": "",
          "type": "uint256"
        }
      ],
      "stateMutability": "view",
      "type": "function"
    },
    {
      "inputs": [
        {
          "internalType": "address",
          "name": "",
          "type": "address"
        }
      ],
      "name": "actorsByAddress",
      "outputs": [
        {
          "internalType": "uint256",
          "name": "id",
          "type": "uint256"
        },
        {
          "internalType": "address",
          "name": "actorAddress",
          "type": "address"
        },
        {
          "internalType": "string",
          "name": "name",
          "type": "string"
        },
        {
          "internalType": "uint8",
          "name": "role",
          "type": "uint8"
        },
        {
          "internalType": "string",
          "name": "place",
          "type": "string"
        }
      ],
      "stateMutability": "view",
      "type": "function"
    },
    {
      "inputs": [
        {
          "internalType": "uint256",
          "name": "",
          "type": "uint256"
        }
      ],
      "name": "actorsById",
      "outputs": [
        {
          "internalType": "uint256",
          "name": "id",
          "type": "uint256"
        },
        {
          "internalType": "address",
          "name": "actorAddress",
          "type": "address"
        },
        {
          "internalType": "string",
          "name": "name",
          "type": "string"
        },
        {
          "internalType": "uint8",
          "name": "role",
          "type": "uint8"
        },
        {
          "internalType": "string",
          "name": "place",
          "type": "string"
        }
      ],
      "stateMutability": "view",
      "type": "function"
    },
    {
      "inputs": [],
      "name": "addressContractOwner",
      "outputs": [
        {
          "internalType": "address",
          "name": "",
          "type": "address"
        }
      ],
      "stateMutability": "view",
      "type": "function"
    },
    {
      "inputs": [],
      "name": "assetIdCounter",
      "outputs": [
        {
          "internalType": "uint256",
          "name": "",
          "type": "uint256"
        }
      ],
      "stateMutability": "view",
      "type": "function"
    },
    {
      "inputs": [
        {
          "internalType": "uint256",
          "name": "",
          "type": "uint256"
        }
      ],
      "name": "fabricDetailsById",
      "outputs": [
        {
          "internalType": "uint256",
          "name": "id",
          "type": "uint256"
        },
        {
          "internalType": "string",
          "name": "rawMaterial",
          "type": "string"
        },
        {
          "internalType": "string",
          "name": "threadType",
          "type": "string"
        },
        {
          "internalType": "string",
          "name": "threadQuality",
          "type": "string"
        },
        {
          "internalType": "string",
          "name": "ipfs",
          "type": "string"
        },
        {
          "internalType": "uint8",
          "name": "dyeType",
          "type": "uint8"
        },
        {
          "internalType": "string",
          "name": "pattern",
          "type": "string"
        },
        {
          "internalType": "string",
          "name": "origin",
          "type": "string"
        },
        {
          "internalType": "uint8",
          "name": "fabricType",
          "type": "uint8"
        }
      ],
      "stateMutability": "view",
      "type": "function"
    },
    {
      "inputs": [
        {
          "internalType": "address",
          "name": "_address",
          "type": "address"
        }
      ],
      "name": "getActorAssets",
      "outputs": [
        {
          "components": [
            {
              "internalType": "uint256",
              "name": "id",
              "type": "uint256"
            },
            {
              "internalType": "uint256",
              "name": "time",
              "type": "uint256"
            }
          ],
          "internalType": "struct WeaveChain.ActorAsset[]",
          "name": "",
          "type": "tuple[]"
        }
      ],
      "stateMutability": "view",
      "type": "function"
    },
    {
      "inputs": [
        {
          "internalType": "address",
          "name": "_address",
          "type": "address"
        }
      ],
      "name": "getActorRole",
      "outputs": [
        {
          "internalType": "uint256",
          "name": "",
          "type": "uint256"
        }
      ],
      "stateMutability": "view",
      "type": "function"
    },
    {
      "inputs": [
        {
          "internalType": "address",
          "name": "_address",
          "type": "address"
        }
      ],
      "name": "getRegisterStatus",
      "outputs": [
        {
          "internalType": "bool",
          "name": "",
          "type": "bool"
        }
      ],
      "stateMutability": "view",
      "type": "function"
    },
    {
      "inputs": [
        {
          "internalType": "uint256",
          "name": "",
          "type": "uint256"
        }
      ],
      "name": "payableAssetsById",
      "outputs": [
        {
          "internalType": "uint8",
          "name": "trackerNumber",
          "type": "uint8"
        },
        {
          "internalType": "uint8",
          "name": "state",
          "type": "uint8"
        },
        {
          "internalType": "uint256",
          "name": "price",
          "type": "uint256"
        },
        {
          "internalType": "string",
          "name": "ipfs",
          "type": "string"
        },
        {
          "internalType": "address payable",
          "name": "recentOwner",
          "type": "address"
        }
      ],
      "stateMutability": "view",
      "type": "function"
    },
    {
      "inputs": [
        {
          "internalType": "uint256",
          "name": "",
          "type": "uint256"
        },
        {
          "internalType": "uint8",
          "name": "",
          "type": "uint8"
        }
      ],
      "name": "tracerAssets",
      "outputs": [
        {
          "internalType": "uint8",
          "name": "state",
          "type": "uint8"
        },
        {
          "internalType": "address",
          "name": "actorAddress",
          "type": "address"
        },
        {
          "internalType": "uint256",
          "name": "price",
          "type": "uint256"
        },
        {
          "internalType": "string",
          "name": "ipfs",
          "type": "string"
        },
        {
          "internalType": "uint256",
          "name": "time",
          "type": "uint256"
        },
        {
          "internalType": "uint8",
          "name": "buyStatus",
          "type": "uint8"
        }
      ],
      "stateMutability": "view",
      "type": "function"
    }
  ],
  "bytecode": "0x60806040526000600155600060025534801561001a57600080fd5b50336000806101000a81548173ffffffffffffffffffffffffffffffffffffffff021916908373ffffffffffffffffffffffffffffffffffffffff160217905550615838806200006b6000396000f3fe6080604052600436106101145760003560e01c80636beb3493116100a0578063b2e2316911610064578063b2e23169146103d9578063c8c2916014610402578063cb94f61e14610443578063d049ae031461046e578063e3a00ef1146104ab57610114565b80636beb3493146102d2578063958d1532146103135780639ddb4a1d1461033e578063a457e1c01461037f578063a6c6867b1461039b57610114565b8063426e236d116100e7578063426e236d146101da57806344453a941461021757806357814c0614610240578063652052cf1461026957806368ede8ab146102a957610114565b8063081d9ad21461011957806310189f5c1461014257806312b370f21461016d5780631527598514610196575b600080fd5b34801561012557600080fd5b50610140600480360381019061013b9190613ee8565b6104e8565b005b34801561014e57600080fd5b50610157610d7f565b6040516101649190613f96565b60405180910390f35b34801561017957600080fd5b50610194600480360381019061018f9190613fb1565b610d85565b005b3480156101a257600080fd5b506101bd60048036038101906101b89190613ff1565b6112d4565b6040516101d19897969594939291906140b9565b60405180910390f35b3480156101e657600080fd5b5061020160048036038101906101fc91906141b8565b6115de565b60405161020e9190614200565b60405180910390f35b34801561022357600080fd5b5061023e60048036038101906102399190614247565b611638565b005b34801561024c57600080fd5b50610267600480360381019061026291906142e6565b611a24565b005b34801561027557600080fd5b50610290600480360381019061028b9190613ff1565b61216e565b6040516102a09493929190614363565b60405180910390f35b3480156102b557600080fd5b506102d060048036038101906102cb91906143a8565b6121d8565b005b3480156102de57600080fd5b506102f960048036038101906102f49190613ff1565b612a2b565b60405161030a95949392919061447c565b60405180910390f35b34801561031f57600080fd5b50610328612b9e565b6040516103359190613f96565b60405180910390f35b34801561034a57600080fd5b50610365600480360381019061036091906144dd565b612ba4565b60405161037695949392919061451d565b60405180910390f35b61039960048036038101906103949190613ff1565b612c21565b005b3480156103a757600080fd5b506103c260048036038101906103bd9190614570565b613265565b6040516103d09291906145b0565b60405180910390f35b3480156103e557600080fd5b5061040060048036038101906103fb9190613fb1565b6132a6565b005b34801561040e57600080fd5b50610429600480360381019061042491906141b8565b6137f5565b60405161043a95949392919061447c565b60405180910390f35b34801561044f57600080fd5b50610458613968565b60405161046591906145d9565b60405180910390f35b34801561047a57600080fd5b50610495600480360381019061049091906141b8565b61398c565b6040516104a291906146e1565b60405180910390f35b3480156104b757600080fd5b506104d260048036038101906104cd91906141b8565b613a3e565b6040516104df9190613f96565b60405180910390f35b60016104f333613a3e565b14610533576040517f08c379a000000000000000000000000000000000000000000000000000000000815260040161052a9061474f565b60405180910390fd5b60016006600086815260200190815260200160002060000160019054906101000a900460ff1660ff161461059c576040517f08c379a0000000000000000000000000000000000000000000000000000000008152600401610593906147e1565b60405180910390fd5b6105a63385613a9a565b6105e5576040517f08c379a00000000000000000000000000000000000000000000000000000000081526004016105dc90614873565b60405180910390fd5b60008311610628576040517f08c379a000000000000000000000000000000000000000000000000000000000815260040161061f90614905565b60405180910390fd5b60006006600086815260200190815260200160002060000160019054906101000a900460ff16905060066000868152602001908152602001600020600001600181819054906101000a900460ff168092919061068390614954565b91906101000a81548160ff021916908360ff1602179055505060066000868152602001908152602001600020600001600081819054906101000a900460ff16809291906106cf90614954565b91906101000a81548160ff021916908360ff1602179055505060405180608001604052806006600088815260200190815260200160002060000160009054906101000a900460ff1660ff1681526020016006600088815260200190815260200160002060000160019054906101000a900460ff1660ff1681526020018581526020013373ffffffffffffffffffffffffffffffffffffffff168152506006600087815260200190815260200160002060008201518160000160006101000a81548160ff021916908360ff16021790555060208201518160000160016101000a81548160ff021916908360ff1602179055506040820151816001015560608201518160020160006101000a81548173ffffffffffffffffffffffffffffffffffffffff021916908373ffffffffffffffffffffffffffffffffffffffff16021790555090505060004290506000600760008881526020019081526020016000206000600660008a815260200190815260200160002060000160009054906101000a900460ff1660ff1660ff16815260200190815260200160002060030160009054906101000a900460ff1690506040518060a00160405280600660008a815260200190815260200160002060000160019054906101000a900460ff1660ff1681526020013373ffffffffffffffffffffffffffffffffffffffff1681526020018781526020018381526020018260ff16815250600760008981526020019081526020016000206000600660008b815260200190815260200160002060000160009054906101000a900460ff1660ff1660ff16815260200190815260200160002060008201518160000160006101000a81548160ff021916908360ff16021790555060208201518160000160016101000a81548173ffffffffffffffffffffffffffffffffffffffff021916908373ffffffffffffffffffffffffffffffffffffffff160217905550604082015181600101556060820151816002015560808201518160030160006101000a81548160ff021916908360ff160217905550905050604051806101000160405280600860008a8152602001908152602001600020600001548152602001600860008a81526020019081526020016000206001018054610a17906149ac565b80601f0160208091040260200160405190810160405280929190818152602001828054610a43906149ac565b8015610a905780601f10610a6557610100808354040283529160200191610a90565b820191906000526020600020905b815481529060010190602001808311610a7357829003601f168201915b50505050508152602001868152602001858152602001600860008a815260200190815260200160002060040160009054906101000a900460ff1660ff168152602001600860008a81526020019081526020016000206005018054610af3906149ac565b80601f0160208091040260200160405190810160405280929190818152602001828054610b1f906149ac565b8015610b6c5780601f10610b4157610100808354040283529160200191610b6c565b820191906000526020600020905b815481529060010190602001808311610b4f57829003601f168201915b50505050508152602001600860008a81526020019081526020016000206006018054610b97906149ac565b80601f0160208091040260200160405190810160405280929190818152602001828054610bc3906149ac565b8015610c105780601f10610be557610100808354040283529160200191610c10565b820191906000526020600020905b815481529060010190602001808311610bf357829003601f168201915b50505050508152602001600860008a815260200190815260200160002060070160009054906101000a900460ff1660ff1681525060086000898152602001908152602001600020600082015181600001556020820151816001019081610c769190614b89565b506040820151816002019081610c8c9190614b89565b506060820151816003019081610ca29190614b89565b5060808201518160040160006101000a81548160ff021916908360ff16021790555060a0820151816005019081610cd99190614b89565b5060c0820151816006019081610cef9190614b89565b5060e08201518160070160006101000a81548160ff021916908360ff1602179055509050507f4077feae87a3ae002f685ef67fe617a0a8e0d1a75a7405ab86f96e0f44c3766f8784600660008b815260200190815260200160002060000160019054906101000a900460ff16338a604051610d6e959493929190614ccd565b60405180910390a150505050505050565b60015481565b6002610d9033613a3e565b14610dd0576040517f08c379a0000000000000000000000000000000000000000000000000000000008152600401610dc790614d7f565b60405180910390fd5b60026006600084815260200190815260200160002060000160019054906101000a900460ff1660ff1614610e39576040517f08c379a0000000000000000000000000000000000000000000000000000000008152600401610e30906147e1565b60405180910390fd5b610e433383613a9a565b610e82576040517f08c379a0000000000000000000000000000000000000000000000000000000008152600401610e7990614873565b60405180910390fd5b60008111610ec5576040517f08c379a0000000000000000000000000000000000000000000000000000000008152600401610ebc90614905565b60405180910390fd5b60006006600084815260200190815260200160002060000160019054906101000a900460ff16905060066000848152602001908152602001600020600001600181819054906101000a900460ff1680929190610f2090614954565b91906101000a81548160ff021916908360ff1602179055505060066000848152602001908152602001600020600001600081819054906101000a900460ff1680929190610f6c90614954565b91906101000a81548160ff021916908360ff1602179055505060405180608001604052806006600086815260200190815260200160002060000160009054906101000a900460ff1660ff1681526020016006600086815260200190815260200160002060000160019054906101000a900460ff1660ff1681526020018381526020013373ffffffffffffffffffffffffffffffffffffffff168152506006600085815260200190815260200160002060008201518160000160006101000a81548160ff021916908360ff16021790555060208201518160000160016101000a81548160ff021916908360ff1602179055506040820151816001015560608201518160020160006101000a81548173ffffffffffffffffffffffffffffffffffffffff021916908373ffffffffffffffffffffffffffffffffffffffff160217905550905050600042905060006007600086815260200190815260200160002060006006600088815260200190815260200160002060000160009054906101000a900460ff1660ff1660ff16815260200190815260200160002060030160009054906101000a900460ff1690506040518060a001604052806006600088815260200190815260200160002060000160019054906101000a900460ff1660ff1681526020013373ffffffffffffffffffffffffffffffffffffffff1681526020018581526020018381526020018260ff168152506007600087815260200190815260200160002060006006600089815260200190815260200160002060000160009054906101000a900460ff1660ff1660ff16815260200190815260200160002060008201518160000160006101000a81548160ff021916908360ff16021790555060208201518160000160016101000a81548173ffffffffffffffffffffffffffffffffffffffff021916908373ffffffffffffffffffffffffffffffffffffffff160217905550604082015181600101556060820151816002015560808201518160030160006101000a81548160ff021916908360ff1602179055509050507f4077feae87a3ae002f685ef67fe617a0a8e0d1a75a7405ab86f96e0f44c3766f85846006600089815260200190815260200160002060000160019054906101000a900460ff1633886040516112c5959493929190614e11565b60405180910390a15050505050565b60086020528060005260406000206000915090508060000154908060010180546112fd906149ac565b80601f0160208091040260200160405190810160405280929190818152602001828054611329906149ac565b80156113765780601f1061134b57610100808354040283529160200191611376565b820191906000526020600020905b81548152906001019060200180831161135957829003601f168201915b50505050509080600201805461138b906149ac565b80601f01602080910402602001604051908101604052809291908181526020018280546113b7906149ac565b80156114045780601f106113d957610100808354040283529160200191611404565b820191906000526020600020905b8154815290600101906020018083116113e757829003601f168201915b505050505090806003018054611419906149ac565b80601f0160208091040260200160405190810160405280929190818152602001828054611445906149ac565b80156114925780601f1061146757610100808354040283529160200191611492565b820191906000526020600020905b81548152906001019060200180831161147557829003601f168201915b5050505050908060040160009054906101000a900460ff16908060050180546114ba906149ac565b80601f01602080910402602001604051908101604052809291908181526020018280546114e6906149ac565b80156115335780601f1061150857610100808354040283529160200191611533565b820191906000526020600020905b81548152906001019060200180831161151657829003601f168201915b505050505090806006018054611548906149ac565b80601f0160208091040260200160405190810160405280929190818152602001828054611574906149ac565b80156115c15780601f10611596576101008083540402835291602001916115c1565b820191906000526020600020905b8154815290600101906020018083116115a457829003601f168201915b5050505050908060070160009054906101000a900460ff16905088565b600080600360008473ffffffffffffffffffffffffffffffffffffffff1673ffffffffffffffffffffffffffffffffffffffff168152602001908152602001600020600201805461162e906149ac565b9050119050919050565b600083510361167c576040517f08c379a000000000000000000000000000000000000000000000000000000000815260040161167390614ec3565b60405180910390fd5b60008151036116c0576040517f08c379a00000000000000000000000000000000000000000000000000000000081526004016116b790614f2f565b60405180910390fd5b60008260ff1603611706576040517f08c379a00000000000000000000000000000000000000000000000000000000081526004016116fd90614f9b565b60405180910390fd5b60048260ff16111561174d576040517f08c379a00000000000000000000000000000000000000000000000000000000081526004016117449061502d565b60405180910390fd5b611756846115de565b15611796576040517f08c379a000000000000000000000000000000000000000000000000000000000815260040161178d90615099565b60405180910390fd5b600160008154809291906117a9906150b9565b91905055506040518060a0016040528060015481526020018573ffffffffffffffffffffffffffffffffffffffff1681526020018481526020018360ff168152602001828152506004600060015481526020019081526020016000206000820151816000015560208201518160010160006101000a81548173ffffffffffffffffffffffffffffffffffffffff021916908373ffffffffffffffffffffffffffffffffffffffff160217905550604082015181600201908161186b9190614b89565b5060608201518160030160006101000a81548160ff021916908360ff16021790555060808201518160040190816118a29190614b89565b509050506040518060a0016040528060015481526020018573ffffffffffffffffffffffffffffffffffffffff1681526020018481526020018360ff16815260200182815250600360008673ffffffffffffffffffffffffffffffffffffffff1673ffffffffffffffffffffffffffffffffffffffff1681526020019081526020016000206000820151816000015560208201518160010160006101000a81548173ffffffffffffffffffffffffffffffffffffffff021916908373ffffffffffffffffffffffffffffffffffffffff160217905550604082015181600201908161198d9190614b89565b5060608201518160030160006101000a81548160ff021916908360ff16021790555060808201518160040190816119c49190614b89565b509050508373ffffffffffffffffffffffffffffffffffffffff167f7c3847f8646db62185e686e424707892ca683b8c1fce382d4271e23ecbf63d92600154858585604051611a16949392919061514d565b60405180910390a250505050565b6001611a2f33613a3e565b14611a6f576040517f08c379a0000000000000000000000000000000000000000000000000000000008152600401611a669061474f565b60405180910390fd5b60008211611ab2576040517f08c379a0000000000000000000000000000000000000000000000000000000008152600401611aa990614905565b60405180910390fd5b6000815103611af6576040517f08c379a0000000000000000000000000000000000000000000000000000000008152600401611aed906151ff565b60405180910390fd5b6000600190506000600260008154611b0d906150b9565b919050819055905060006001905060405180608001604052808260ff1681526020018460ff1681526020018681526020013373ffffffffffffffffffffffffffffffffffffffff168152506006600084815260200190815260200160002060008201518160000160006101000a81548160ff021916908360ff16021790555060208201518160000160016101000a81548160ff021916908360ff1602179055506040820151816001015560608201518160020160006101000a81548173ffffffffffffffffffffffffffffffffffffffff021916908373ffffffffffffffffffffffffffffffffffffffff160217905550905050611c0b3383613ba4565b600042905060006007600085815260200190815260200160002060008460ff1660ff16815260200190815260200160002060030160009054906101000a900460ff1690506040518060a001604052808660ff1681526020013373ffffffffffffffffffffffffffffffffffffffff1681526020018881526020018381526020018260ff168152506007600086815260200190815260200160002060008560ff1660ff16815260200190815260200160002060008201518160000160006101000a81548160ff021916908360ff16021790555060208201518160000160016101000a81548173ffffffffffffffffffffffffffffffffffffffff021916908373ffffffffffffffffffffffffffffffffffffffff160217905550604082015181600101556060820151816002015560808201518160030160006101000a81548160ff021916908360ff160217905550905050604051806101000160405280858152602001878152602001600860008781526020019081526020016000206002018054611d95906149ac565b80601f0160208091040260200160405190810160405280929190818152602001828054611dc1906149ac565b8015611e0e5780601f10611de357610100808354040283529160200191611e0e565b820191906000526020600020905b815481529060010190602001808311611df157829003601f168201915b50505050508152602001600860008781526020019081526020016000206003018054611e39906149ac565b80601f0160208091040260200160405190810160405280929190818152602001828054611e65906149ac565b8015611eb25780601f10611e8757610100808354040283529160200191611eb2565b820191906000526020600020905b815481529060010190602001808311611e9557829003601f168201915b505050505081526020016008600087815260200190815260200160002060040160009054906101000a900460ff1660ff168152602001600860008781526020019081526020016000206005018054611f09906149ac565b80601f0160208091040260200160405190810160405280929190818152602001828054611f35906149ac565b8015611f825780601f10611f5757610100808354040283529160200191611f82565b820191906000526020600020905b815481529060010190602001808311611f6557829003601f168201915b50505050508152602001600860008781526020019081526020016000206006018054611fad906149ac565b80601f0160208091040260200160405190810160405280929190818152602001828054611fd9906149ac565b80156120265780601f10611ffb57610100808354040283529160200191612026565b820191906000526020600020905b81548152906001019060200180831161200957829003601f168201915b505050505081526020016008600087815260200190815260200160002060070160009054906101000a900460ff1660ff168152506008600086815260200190815260200160002060008201518160000155602082015181600101908161208c9190614b89565b5060408201518160020190816120a29190614b89565b5060608201518160030190816120b89190614b89565b5060808201518160040160006101000a81548160ff021916908360ff16021790555060a08201518160050190816120ef9190614b89565b5060c08201518160060190816121059190614b89565b5060e08201518160070160006101000a81548160ff021916908360ff1602179055509050507f3852f7009822b1e965511b49bb80394eee5e5c7756984329042c979d1f1e0ac884338960405161215d93929190615291565b60405180910390a150505050505050565b60066020528060005260406000206000915090508060000160009054906101000a900460ff16908060000160019054906101000a900460ff16908060010154908060020160009054906101000a900473ffffffffffffffffffffffffffffffffffffffff16905084565b60036121e333613a3e565b14612223576040517f08c379a000000000000000000000000000000000000000000000000000000000815260040161221a90615327565b60405180910390fd5b60036006600088815260200190815260200160002060000160019054906101000a900460ff1660ff161461228c576040517f08c379a0000000000000000000000000000000000000000000000000000000008152600401612283906147e1565b60405180910390fd5b6122963387613a9a565b6122d5576040517f08c379a00000000000000000000000000000000000000000000000000000000081526004016122cc90614873565b60405180910390fd5b60008511612318576040517f08c379a000000000000000000000000000000000000000000000000000000000815260040161230f90614905565b60405180910390fd5b60006006600088815260200190815260200160002060000160019054906101000a900460ff16905060066000888152602001908152602001600020600001600181819054906101000a900460ff168092919061237390614954565b91906101000a81548160ff021916908360ff1602179055505060066000888152602001908152602001600020600001600081819054906101000a900460ff16809291906123bf90614954565b91906101000a81548160ff021916908360ff160217905550506040518060800160405280600660008a815260200190815260200160002060000160009054906101000a900460ff1660ff168152602001600660008a815260200190815260200160002060000160019054906101000a900460ff1660ff1681526020018781526020013373ffffffffffffffffffffffffffffffffffffffff168152506006600089815260200190815260200160002060008201518160000160006101000a81548160ff021916908360ff16021790555060208201518160000160016101000a81548160ff021916908360ff1602179055506040820151816001015560608201518160020160006101000a81548173ffffffffffffffffffffffffffffffffffffffff021916908373ffffffffffffffffffffffffffffffffffffffff16021790555090505060004290506000600760008a81526020019081526020016000206000600660008c815260200190815260200160002060000160009054906101000a900460ff1660ff1660ff16815260200190815260200160002060030160009054906101000a900460ff1690506040518060a00160405280600660008c815260200190815260200160002060000160019054906101000a900460ff1660ff1681526020013373ffffffffffffffffffffffffffffffffffffffff1681526020018981526020018381526020018260ff16815250600760008b81526020019081526020016000206000600660008d815260200190815260200160002060000160009054906101000a900460ff1660ff1660ff16815260200190815260200160002060008201518160000160006101000a81548160ff021916908360ff16021790555060208201518160000160016101000a81548173ffffffffffffffffffffffffffffffffffffffff021916908373ffffffffffffffffffffffffffffffffffffffff160217905550604082015181600101556060820151816002015560808201518160030160006101000a81548160ff021916908360ff160217905550905050604051806101000160405280600860008c8152602001908152602001600020600001548152602001600860008c81526020019081526020016000206001018054612707906149ac565b80601f0160208091040260200160405190810160405280929190818152602001828054612733906149ac565b80156127805780601f1061275557610100808354040283529160200191612780565b820191906000526020600020905b81548152906001019060200180831161276357829003601f168201915b50505050508152602001600860008c815260200190815260200160002060020180546127ab906149ac565b80601f01602080910402602001604051908101604052809291908181526020018280546127d7906149ac565b80156128245780601f106127f957610100808354040283529160200191612824565b820191906000526020600020905b81548152906001019060200180831161280757829003601f168201915b50505050508152602001600860008c8152602001908152602001600020600301805461284f906149ac565b80601f016020809104026020016040519081016040528092919081815260200182805461287b906149ac565b80156128c85780601f1061289d576101008083540402835291602001916128c8565b820191906000526020600020905b8154815290600101906020018083116128ab57829003601f168201915b505050505081526020018860ff1681526020018781526020018681526020018560ff16815250600860008b81526020019081526020016000206000820151816000015560208201518160010190816129209190614b89565b5060408201518160020190816129369190614b89565b50606082015181600301908161294c9190614b89565b5060808201518160040160006101000a81548160ff021916908360ff16021790555060a08201518160050190816129839190614b89565b5060c08201518160060190816129999190614b89565b5060e08201518160070160006101000a81548160ff021916908360ff1602179055509050507f4077feae87a3ae002f685ef67fe617a0a8e0d1a75a7405ab86f96e0f44c3766f8984600660008d815260200190815260200160002060000160019054906101000a900460ff16338c604051612a189594939291906153b9565b60405180910390a1505050505050505050565b60046020528060005260406000206000915090508060000154908060010160009054906101000a900473ffffffffffffffffffffffffffffffffffffffff1690806002018054612a7a906149ac565b80601f0160208091040260200160405190810160405280929190818152602001828054612aa6906149ac565b8015612af35780601f10612ac857610100808354040283529160200191612af3565b820191906000526020600020905b815481529060010190602001808311612ad657829003601f168201915b5050505050908060030160009054906101000a900460ff1690806004018054612b1b906149ac565b80601f0160208091040260200160405190810160405280929190818152602001828054612b47906149ac565b8015612b945780601f10612b6957610100808354040283529160200191612b94565b820191906000526020600020905b815481529060010190602001808311612b7757829003601f168201915b5050505050905085565b60025481565b6007602052816000526040600020602052806000526040600020600091509150508060000160009054906101000a900460ff16908060000160019054906101000a900473ffffffffffffffffffffffffffffffffffffffff16908060010154908060020154908060030160009054906101000a900460ff16905085565b600081118015612c3357506002548111155b612c72576040517f08c379a0000000000000000000000000000000000000000000000000000000008152600401612c699061546b565b60405180910390fd5b6006600082815260200190815260200160002060010154341015612ccb576040517f08c379a0000000000000000000000000000000000000000000000000000000008152600401612cc2906154d7565b60405180910390fd5b3373ffffffffffffffffffffffffffffffffffffffff166007600083815260200190815260200160002060006006600085815260200190815260200160002060000160009054906101000a900460ff1660ff1660ff16815260200190815260200160002060000160019054906101000a900473ffffffffffffffffffffffffffffffffffffffff1673ffffffffffffffffffffffffffffffffffffffff1603612da9576040517f08c379a0000000000000000000000000000000000000000000000000000000008152600401612da090615569565b60405180910390fd5b60066000828152602001908152602001600020600001600081819054906101000a900460ff1680929190612ddc90614954565b91906101000a81548160ff021916908360ff1602179055505060405180608001604052806006600084815260200190815260200160002060000160009054906101000a900460ff1660ff1681526020016006600084815260200190815260200160002060000160019054906101000a900460ff1660ff168152602001600660008481526020019081526020016000206001015481526020016006600084815260200190815260200160002060020160009054906101000a900473ffffffffffffffffffffffffffffffffffffffff1673ffffffffffffffffffffffffffffffffffffffff168152506006600083815260200190815260200160002060008201518160000160006101000a81548160ff021916908360ff16021790555060208201518160000160016101000a81548160ff021916908360ff1602179055506040820151816001015560608201518160020160006101000a81548173ffffffffffffffffffffffffffffffffffffffff021916908373ffffffffffffffffffffffffffffffffffffffff160217905550905050600042905060008080612f7f90614954565b9150506040518060a001604052806006600086815260200190815260200160002060000160019054906101000a900460ff1660ff1681526020013373ffffffffffffffffffffffffffffffffffffffff168152602001600660008681526020019081526020016000206001015481526020018381526020018260ff168152506007600085815260200190815260200160002060006006600087815260200190815260200160002060000160009054906101000a900460ff1660ff1660ff16815260200190815260200160002060008201518160000160006101000a81548160ff021916908360ff16021790555060208201518160000160016101000a81548173ffffffffffffffffffffffffffffffffffffffff021916908373ffffffffffffffffffffffffffffffffffffffff160217905550604082015181600101556060820151816002015560808201518160030160006101000a81548160ff021916908360ff16021790555090505061312b6006600085815260200190815260200160002060020160009054906101000a900473ffffffffffffffffffffffffffffffffffffffff1684613c89565b6131353384613ba4565b6006600084815260200190815260200160002060020160009054906101000a900473ffffffffffffffffffffffffffffffffffffffff1673ffffffffffffffffffffffffffffffffffffffff166108fc349081150290604051600060405180830381858888f193505050501580156131b1573d6000803e3d6000fd5b507f745622a6e61c37ae66fca15035cc4213045dcd987ead88ee28fa3ee4b359dc7a836006600086815260200190815260200160002060020160009054906101000a900473ffffffffffffffffffffffffffffffffffffffff16336006600088815260200190815260200160002060000160019054906101000a900460ff1660066000898152602001908152602001600020600101546040516132589594939291906155d5565b60405180910390a1505050565b6005602052816000526040600020818154811061328157600080fd5b9060005260206000209060020201600091509150508060000154908060010154905082565b60046132b133613a3e565b146132f1576040517f08c379a00000000000000000000000000000000000000000000000000000000081526004016132e890615687565b60405180910390fd5b60046006600084815260200190815260200160002060000160019054906101000a900460ff1660ff161461335a576040517f08c379a0000000000000000000000000000000000000000000000000000000008152600401613351906147e1565b60405180910390fd5b6133643383613a9a565b6133a3576040517f08c379a000000000000000000000000000000000000000000000000000000000815260040161339a90614873565b60405180910390fd5b600081116133e6576040517f08c379a00000000000000000000000000000000000000000000000000000000081526004016133dd90614905565b60405180910390fd5b60006006600084815260200190815260200160002060000160019054906101000a900460ff16905060066000848152602001908152602001600020600001600181819054906101000a900460ff168092919061344190614954565b91906101000a81548160ff021916908360ff1602179055505060066000848152602001908152602001600020600001600081819054906101000a900460ff168092919061348d90614954565b91906101000a81548160ff021916908360ff1602179055505060405180608001604052806006600086815260200190815260200160002060000160009054906101000a900460ff1660ff1681526020016006600086815260200190815260200160002060000160019054906101000a900460ff1660ff1681526020018381526020013373ffffffffffffffffffffffffffffffffffffffff168152506006600085815260200190815260200160002060008201518160000160006101000a81548160ff021916908360ff16021790555060208201518160000160016101000a81548160ff021916908360ff1602179055506040820151816001015560608201518160020160006101000a81548173ffffffffffffffffffffffffffffffffffffffff021916908373ffffffffffffffffffffffffffffffffffffffff160217905550905050600042905060006007600086815260200190815260200160002060006006600088815260200190815260200160002060000160009054906101000a900460ff1660ff1660ff16815260200190815260200160002060030160009054906101000a900460ff1690506040518060a001604052806006600088815260200190815260200160002060000160019054906101000a900460ff1660ff1681526020013373ffffffffffffffffffffffffffffffffffffffff1681526020018581526020018381526020018260ff168152506007600087815260200190815260200160002060006006600089815260200190815260200160002060000160009054906101000a900460ff1660ff1660ff16815260200190815260200160002060008201518160000160006101000a81548160ff021916908360ff16021790555060208201518160000160016101000a81548173ffffffffffffffffffffffffffffffffffffffff021916908373ffffffffffffffffffffffffffffffffffffffff160217905550604082015181600101556060820151816002015560808201518160030160006101000a81548160ff021916908360ff1602179055509050507f4077feae87a3ae002f685ef67fe617a0a8e0d1a75a7405ab86f96e0f44c3766f85846006600089815260200190815260200160002060000160019054906101000a900460ff1633886040516137e69594939291906156f3565b60405180910390a15050505050565b60036020528060005260406000206000915090508060000154908060010160009054906101000a900473ffffffffffffffffffffffffffffffffffffffff1690806002018054613844906149ac565b80601f0160208091040260200160405190810160405280929190818152602001828054613870906149ac565b80156138bd5780601f10613892576101008083540402835291602001916138bd565b820191906000526020600020905b8154815290600101906020018083116138a057829003601f168201915b5050505050908060030160009054906101000a900460ff16908060040180546138e5906149ac565b80601f0160208091040260200160405190810160405280929190818152602001828054613911906149ac565b801561395e5780601f106139335761010080835404028352916020019161395e565b820191906000526020600020905b81548152906001019060200180831161394157829003601f168201915b5050505050905085565b60008054906101000a900473ffffffffffffffffffffffffffffffffffffffff1681565b6060600560008373ffffffffffffffffffffffffffffffffffffffff1673ffffffffffffffffffffffffffffffffffffffff168152602001908152602001600020805480602002602001604051908101604052809291908181526020016000905b82821015613a33578382906000526020600020906002020160405180604001604052908160008201548152602001600182015481525050815260200190600101906139ed565b505050509050919050565b6000600360008373ffffffffffffffffffffffffffffffffffffffff1673ffffffffffffffffffffffffffffffffffffffff16815260200190815260200160002060030160009054906101000a900460ff1660ff169050919050565b600080600560008573ffffffffffffffffffffffffffffffffffffffff1673ffffffffffffffffffffffffffffffffffffffff168152602001908152602001600020805480602002602001604051908101604052809291908181526020016000905b82821015613b4257838290600052602060002090600202016040518060400160405290816000820154815260200160018201548152505081526020019060010190613afc565b50505050905060005b8151811015613b975783828281518110613b6857613b67615759565b5b60200260200101516000015103613b8457600192505050613b9e565b8080613b8f906150b9565b915050613b4b565b5060009150505b92915050565b600560008373ffffffffffffffffffffffffffffffffffffffff1673ffffffffffffffffffffffffffffffffffffffff1681526020019081526020016000206040518060400160405280838152602001428152509080600181540180825580915050600190039060005260206000209060020201600090919091909150600082015181600001556020820151816001015550508173ffffffffffffffffffffffffffffffffffffffff167fd9943d316e03c76a0277683e5fa4ed2b175e6568c8d3a22d9f0b32092e584a2882604051613c7d91906157d4565b60405180910390a25050565b6000600560008473ffffffffffffffffffffffffffffffffffffffff1673ffffffffffffffffffffffffffffffffffffffff168152602001908152602001600020905060005b8180549050811015613d525782828281548110613cef57613cee615759565b5b90600052602060002090600202016000015403613d3f57818181548110613d1957613d18615759565b5b906000526020600020906002020160008082016000905560018201600090555050613d52565b8080613d4a906150b9565b915050613ccf565b50505050565b6000604051905090565b600080fd5b600080fd5b6000819050919050565b613d7f81613d6c565b8114613d8a57600080fd5b50565b600081359050613d9c81613d76565b92915050565b600080fd5b600080fd5b6000601f19601f8301169050919050565b7f4e487b7100000000000000000000000000000000000000000000000000000000600052604160045260246000fd5b613df582613dac565b810181811067ffffffffffffffff82111715613e1457613e13613dbd565b5b80604052505050565b6000613e27613d58565b9050613e338282613dec565b919050565b600067ffffffffffffffff821115613e5357613e52613dbd565b5b613e5c82613dac565b9050602081019050919050565b82818337600083830152505050565b6000613e8b613e8684613e38565b613e1d565b905082815260208101848484011115613ea757613ea6613da7565b5b613eb2848285613e69565b509392505050565b600082601f830112613ecf57613ece613da2565b5b8135613edf848260208601613e78565b91505092915050565b60008060008060808587031215613f0257613f01613d62565b5b6000613f1087828801613d8d565b9450506020613f2187828801613d8d565b935050604085013567ffffffffffffffff811115613f4257613f41613d67565b5b613f4e87828801613eba565b925050606085013567ffffffffffffffff811115613f6f57613f6e613d67565b5b613f7b87828801613eba565b91505092959194509250565b613f9081613d6c565b82525050565b6000602082019050613fab6000830184613f87565b92915050565b60008060408385031215613fc857613fc7613d62565b5b6000613fd685828601613d8d565b9250506020613fe785828601613d8d565b9150509250929050565b60006020828403121561400757614006613d62565b5b600061401584828501613d8d565b91505092915050565b600081519050919050565b600082825260208201905092915050565b60005b8381101561405857808201518184015260208101905061403d565b60008484015250505050565b600061406f8261401e565b6140798185614029565b935061408981856020860161403a565b61409281613dac565b840191505092915050565b600060ff82169050919050565b6140b38161409d565b82525050565b6000610100820190506140cf600083018b613f87565b81810360208301526140e1818a614064565b905081810360408301526140f58189614064565b905081810360608301526141098188614064565b905061411860808301876140aa565b81810360a083015261412a8186614064565b905081810360c083015261413e8185614064565b905061414d60e08301846140aa565b9998505050505050505050565b600073ffffffffffffffffffffffffffffffffffffffff82169050919050565b60006141858261415a565b9050919050565b6141958161417a565b81146141a057600080fd5b50565b6000813590506141b28161418c565b92915050565b6000602082840312156141ce576141cd613d62565b5b60006141dc848285016141a3565b91505092915050565b60008115159050919050565b6141fa816141e5565b82525050565b600060208201905061421560008301846141f1565b92915050565b6142248161409d565b811461422f57600080fd5b50565b6000813590506142418161421b565b92915050565b6000806000806080858703121561426157614260613d62565b5b600061426f878288016141a3565b945050602085013567ffffffffffffffff8111156142905761428f613d67565b5b61429c87828801613eba565b93505060406142ad87828801614232565b925050606085013567ffffffffffffffff8111156142ce576142cd613d67565b5b6142da87828801613eba565b91505092959194509250565b600080604083850312156142fd576142fc613d62565b5b600061430b85828601613d8d565b925050602083013567ffffffffffffffff81111561432c5761432b613d67565b5b61433885828601613eba565b9150509250929050565b600061434d8261415a565b9050919050565b61435d81614342565b82525050565b600060808201905061437860008301876140aa565b61438560208301866140aa565b6143926040830185613f87565b61439f6060830184614354565b95945050505050565b60008060008060008060c087890312156143c5576143c4613d62565b5b60006143d389828a01613d8d565b96505060206143e489828a01613d8d565b95505060406143f589828a01614232565b945050606087013567ffffffffffffffff81111561441657614415613d67565b5b61442289828a01613eba565b935050608087013567ffffffffffffffff81111561444357614442613d67565b5b61444f89828a01613eba565b92505060a061446089828a01614232565b9150509295509295509295565b6144768161417a565b82525050565b600060a0820190506144916000830188613f87565b61449e602083018761446d565b81810360408301526144b08186614064565b90506144bf60608301856140aa565b81810360808301526144d18184614064565b90509695505050505050565b600080604083850312156144f4576144f3613d62565b5b600061450285828601613d8d565b925050602061451385828601614232565b9150509250929050565b600060a08201905061453260008301886140aa565b61453f602083018761446d565b61454c6040830186613f87565b6145596060830185613f87565b61456660808301846140aa565b9695505050505050565b6000806040838503121561458757614586613d62565b5b6000614595858286016141a3565b92505060206145a685828601613d8d565b9150509250929050565b60006040820190506145c56000830185613f87565b6145d26020830184613f87565b9392505050565b60006020820190506145ee600083018461446d565b92915050565b600081519050919050565b600082825260208201905092915050565b6000819050602082019050919050565b61462981613d6c565b82525050565b6040820160008201516146456000850182614620565b5060208201516146586020850182614620565b50505050565b600061466a838361462f565b60408301905092915050565b6000602082019050919050565b600061468e826145f4565b61469881856145ff565b93506146a383614610565b8060005b838110156146d45781516146bb888261465e565b97506146c683614676565b9250506001810190506146a7565b5085935050505092915050565b600060208201905081810360008301526146fb8184614683565b905092915050565b7f4865206973206e6f7420546872656164204d616e756661637475726572000000600082015250565b6000614739601d83614029565b915061474482614703565b602082019050919050565b600060208201905081810360008301526147688161472c565b9050919050565b7f417373657420696e697469616c207374617465206973206e6f7420636f72726560008201527f6374000000000000000000000000000000000000000000000000000000000000602082015250565b60006147cb602283614029565b91506147d68261476f565b604082019050919050565b600060208201905081810360008301526147fa816147be565b9050919050565b7f54686973206163746f7220646f6e27742068617665207468652061737365742060008201527f746861742077616e7420746f2062652070726f63657373656400000000000000602082015250565b600061485d603983614029565b915061486882614801565b604082019050919050565b6000602082019050818103600083015261488c81614850565b9050919050565b7f4173736574207072696365206d7573742062652067726561746572207468616e60008201527f2030000000000000000000000000000000000000000000000000000000000000602082015250565b60006148ef602283614029565b91506148fa82614893565b604082019050919050565b6000602082019050818103600083015261491e816148e2565b9050919050565b7f4e487b7100000000000000000000000000000000000000000000000000000000600052601160045260246000fd5b600061495f8261409d565b915060ff820361497257614971614925565b5b600182019050919050565b7f4e487b7100000000000000000000000000000000000000000000000000000000600052602260045260246000fd5b600060028204905060018216806149c457607f821691505b6020821081036149d7576149d661497d565b5b50919050565b60008190508160005260206000209050919050565b60006020601f8301049050919050565b600082821b905092915050565b600060088302614a3f7fffffffffffffffffffffffffffffffffffffffffffffffffffffffffffffffff82614a02565b614a498683614a02565b95508019841693508086168417925050509392505050565b6000819050919050565b6000614a86614a81614a7c84613d6c565b614a61565b613d6c565b9050919050565b6000819050919050565b614aa083614a6b565b614ab4614aac82614a8d565b848454614a0f565b825550505050565b600090565b614ac9614abc565b614ad4818484614a97565b505050565b5b81811015614af857614aed600082614ac1565b600181019050614ada565b5050565b601f821115614b3d57614b0e816149dd565b614b17846149f2565b81016020851015614b26578190505b614b3a614b32856149f2565b830182614ad9565b50505b505050565b600082821c905092915050565b6000614b6060001984600802614b42565b1980831691505092915050565b6000614b798383614b4f565b9150826002028217905092915050565b614b928261401e565b67ffffffffffffffff811115614bab57614baa613dbd565b5b614bb582546149ac565b614bc0828285614afc565b600060209050601f831160018114614bf35760008415614be1578287015190505b614beb8582614b6d565b865550614c53565b601f198416614c01866149dd565b60005b82811015614c2957848901518255600182019150602085019450602081019050614c04565b86831015614c465784890151614c42601f891682614b4f565b8355505b6001600288020188555050505b505050505050565b7f4173736574202854687265616429207761732073756363657366756c6c79206360008201527f7265617465642100000000000000000000000000000000000000000000000000602082015250565b6000614cb7602783614029565b9150614cc282614c5b565b604082019050919050565b600060c082019050614ce26000830188613f87565b614cef60208301876140aa565b614cfc60408301866140aa565b614d09606083018561446d565b614d166080830184613f87565b81810360a0830152614d2781614caa565b90509695505050505050565b7f4865206973206e6f74205468726561642044697472696275746f720000000000600082015250565b6000614d69601b83614029565b9150614d7482614d33565b602082019050919050565b60006020820190508181036000830152614d9881614d5c565b9050919050565b7f417373657420285468726561642920776173207375636365737366756c6c792060008201527f6469737472696275746564000000000000000000000000000000000000000000602082015250565b6000614dfb602b83614029565b9150614e0682614d9f565b604082019050919050565b600060c082019050614e266000830188613f87565b614e3360208301876140aa565b614e4060408301866140aa565b614e4d606083018561446d565b614e5a6080830184613f87565b81810360a0830152614e6b81614dee565b90509695505050505050565b7f4e616d65206973206e6f742076616c6964000000000000000000000000000000600082015250565b6000614ead601183614029565b9150614eb882614e77565b602082019050919050565b60006020820190508181036000830152614edc81614ea0565b9050919050565b7f506c616365206973206e6f742076616c69640000000000000000000000000000600082015250565b6000614f19601283614029565b9150614f2482614ee3565b602082019050919050565b60006020820190508181036000830152614f4881614f0c565b9050919050565b7f526f6c65206d757374206e6f74207a65726f0000000000000000000000000000600082015250565b6000614f85601283614029565b9150614f9082614f4f565b602082019050919050565b60006020820190508181036000830152614fb481614f78565b9050919050565b7f526f6c652076616c7565206d757374206265206c657373207468616e206f722060008201527f657175616c20746f203400000000000000000000000000000000000000000000602082015250565b6000615017602a83614029565b915061502282614fbb565b604082019050919050565b600060208201905081810360008301526150468161500a565b9050919050565b7f55736572206d757374206e6f7420626520726567697374657265640000000000600082015250565b6000615083601b83614029565b915061508e8261504d565b602082019050919050565b600060208201905081810360008301526150b281615076565b9050919050565b60006150c482613d6c565b91507fffffffffffffffffffffffffffffffffffffffffffffffffffffffffffffffff82036150f6576150f5614925565b5b600182019050919050565b7f4163746f72207375636365737366756c6c792063726561746564000000000000600082015250565b6000615137601a83614029565b915061514282615101565b602082019050919050565b600060a0820190506151626000830187613f87565b81810360208301526151748186614064565b905061518360408301856140aa565b81810360608301526151958184614064565b905081810360808301526151a88161512a565b905095945050505050565b7f526177206d6174657269616c206973206e6f742076616c696400000000000000600082015250565b60006151e9601983614029565b91506151f4826151b3565b602082019050919050565b60006020820190508181036000830152615218816151dc565b9050919050565b7f41737365742028526177204d6174657269616c2920776173207375636365737360008201527f66756c6c7920696e697469617465640000000000000000000000000000000000602082015250565b600061527b602f83614029565b91506152868261521f565b604082019050919050565b60006080820190506152a66000830186613f87565b6152b3602083018561446d565b6152c06040830184613f87565b81810360608301526152d18161526e565b9050949350505050565b7f4865206973206e6f742057656176657200000000000000000000000000000000600082015250565b6000615311601083614029565b915061531c826152db565b602082019050919050565b6000602082019050818103600083015261534081615304565b9050919050565b7f41737365742028576f76656e204661627269632920776173207375636365737360008201527f66756c6c7920776f76656e000000000000000000000000000000000000000000602082015250565b60006153a3602b83614029565b91506153ae82615347565b604082019050919050565b600060c0820190506153ce6000830188613f87565b6153db60208301876140aa565b6153e860408301866140aa565b6153f5606083018561446d565b6154026080830184613f87565b81810360a083015261541381615396565b90509695505050505050565b7f4173736574204964206973206e6f742076616c69640000000000000000000000600082015250565b6000615455601583614029565b91506154608261541f565b602082019050919050565b6000602082019050818103600083015261548481615448565b9050919050565b7f5472616e7366657220616d6f756e74206973206e6f7420636f72726563740000600082015250565b60006154c1601e83614029565b91506154cc8261548b565b602082019050919050565b600060208201905081810360008301526154f0816154b4565b9050919050565b7f53656c6c65722063616e742073656c6c20417373657420746f2068696d73656c60008201527f6600000000000000000000000000000000000000000000000000000000000000602082015250565b6000615553602183614029565b915061555e826154f7565b604082019050919050565b6000602082019050818103600083015261558281615546565b9050919050565b7f4173736574207375636365737366756c6c7920626f7567687400000000000000600082015250565b60006155bf601983614029565b91506155ca82615589565b602082019050919050565b600060c0820190506155ea6000830188613f87565b6155f76020830187614354565b615604604083018661446d565b61561160608301856140aa565b61561e6080830184613f87565b81810360a083015261562f816155b2565b90509695505050505050565b7f4865206973206e6f742052657461696c65720000000000000000000000000000600082015250565b6000615671601283614029565b915061567c8261563b565b602082019050919050565b600060208201905081810360008301526156a081615664565b9050919050565b7f576f76656e2066616272696320736f6c6420746f20637573746f6d6572000000600082015250565b60006156dd601d83614029565b91506156e8826156a7565b602082019050919050565b600060c0820190506157086000830188613f87565b61571560208301876140aa565b61572260408301866140aa565b61572f606083018561446d565b61573c6080830184613f87565b81810360a083015261574d816156d0565b90509695505050505050565b7f4e487b7100000000000000000000000000000000000000000000000000000000600052603260045260246000fd5b7f4e657720617373657420686173206265656e2061646465640000000000000000600082015250565b60006157be601883614029565b91506157c982615788565b602082019050919050565b60006040820190506157e96000830184613f87565b81810360208301526157fa816157b1565b90509291505056fea26469706673582212201b1d72c4edd3e87d509f59b9dc590ea4d928dcf02fd20580ab1de31f0365251864736f6c63430008120033",
  "immutableReferences": {},
  "source": "// SPDX-License-Identifier: GPL-3.0\r\npragma solidity >=0.8.2 <0.9.0;\r\n\r\ncontract WeaveChain {\r\n    constructor() {\r\n        addressContractOwner = msg.sender;\r\n    }\r\n\r\n    address public addressContractOwner; \r\n    uint256 public actorIdCounter = 0;\r\n    uint256 public assetIdCounter = 0;\r\n\r\n    //modifier start\r\n    modifier onlyTM() {\r\n        require(getActorRole(msg.sender) == 1, \"He is not Thread Manufacturer\");\r\n        _;\r\n    }\r\n    modifier onlyTD() {\r\n        require(getActorRole(msg.sender) == 2, \"He is not Thread Ditributor\");\r\n        _;\r\n    }\r\n    modifier onlyWeaver() {\r\n        require(getActorRole(msg.sender) == 3, \"He is not Weaver\");\r\n        _;\r\n    }\r\n    modifier onlyRetailer() {\r\n        require(getActorRole(msg.sender) == 4, \"He is not Retailer\");\r\n        _;\r\n    }\r\n    //modifier end\r\n\r\n    //struct start\r\n    struct Actor {\r\n        uint256 id;\r\n        address actorAddress;\r\n        string name;\r\n        uint8 role;\r\n        string place;\r\n    }\r\n    struct ActorAsset {\r\n        uint256 id;\r\n        uint256 time;\r\n    }\r\n    struct AssetPayable {\r\n        uint8 trackerNumber;\r\n        uint8 state;\r\n        uint256 price;\r\n        address payable recentOwner;\r\n    }\r\n    struct AssetTracer {\r\n        uint8 state;\r\n        address actorAddress;\r\n        uint256 price;\r\n        uint256 time;\r\n        uint8 buyStatus;\r\n    }\r\n    struct FabricDetail {\r\n        uint256 id;\r\n        string rawMaterial;\r\n        string threadType;\r\n        string threadQuality;\r\n        uint8 dyeType;\r\n        string pattern;\r\n        string origin;\r\n        uint8 fabricType;\r\n    }\r\n    //struct end\r\n\r\n    //mapping start\r\n    mapping(address => Actor) public actorsByAddress;\r\n    mapping(uint256 => Actor) public actorsById;\r\n    mapping(address => ActorAsset[]) public actorAssetsByAddress;\r\n    mapping(uint256 => AssetPayable) public payableAssetsById;\r\n    mapping(uint256 => mapping(uint8 => AssetTracer)) public tracerAssets; //key asset id and asset state/tracker number\r\n    mapping(uint256 => FabricDetail) public fabricDetailsById;\r\n    //mapping end\r\n\r\n    //event start\r\n    event ActorCreated(\r\n        uint256 id,\r\n        address indexed actorAddress,\r\n        string name,\r\n        uint8 role,\r\n        string place,\r\n        string log\r\n    );\r\n    event AssetAdded(address indexed actorAddress, uint256 assetId, string log);\r\n    event AssetInitiated(\r\n        uint256 id,\r\n        address owner,\r\n        uint256 price,\r\n        string message\r\n    );\r\n    event AssetProcessed(\r\n        uint256 id,\r\n        uint8 oldState,\r\n        uint8 newState,\r\n        address owner,\r\n        uint256 price,\r\n        string message\r\n    );\r\n    event AssetPurchased(\r\n        uint256 assetId,\r\n        address payable seller,\r\n        address buyer,\r\n        uint8 state,\r\n        uint256 price,\r\n        string message\r\n    );\r\n\r\n    //event end\r\n\r\n    //getter function start\r\n    function getActorRole(address _address) public view returns (uint256) {\r\n        return actorsByAddress[_address].role;\r\n    }\r\n    function getRegisterStatus(address _address) public view returns (bool) {\r\n        return bytes(actorsByAddress[_address].name).length > 0;\r\n    }\r\n    function getActorAssets(\r\n        address _address\r\n    ) public view returns (ActorAsset[] memory) {\r\n        return actorAssetsByAddress[_address];\r\n    }\r\n    //getter function end\r\n\r\n    //function start\r\n    function registerActor(\r\n        address _address,\r\n        string memory _name,\r\n        uint8 _role,\r\n        string memory _place\r\n    ) public {\r\n        require(bytes(_name).length != 0, \"Name is not valid\");\r\n        require(bytes(_place).length != 0, \"Place is not valid\");\r\n        require(_role != 0, \"Role must not zero\");\r\n        require(_role <= 4, \"Role value must be less than or equal to 4\");\r\n        require(!getRegisterStatus(_address), \"User must not be registered\");\r\n\r\n        actorIdCounter++;  //generate id akotr baru\r\n        actorsById[actorIdCounter] = Actor(\r\n            actorIdCounter,\r\n            _address,\r\n            _name,\r\n            _role,\r\n            _place\r\n        );\r\n        actorsByAddress[_address] = Actor(\r\n            actorIdCounter,\r\n            _address,\r\n            _name,\r\n            _role,\r\n            _place\r\n        );\r\n        emit ActorCreated(\r\n            actorIdCounter,\r\n            _address,\r\n            _name,\r\n            _role,\r\n            _place,\r\n            \"Actor successfully created\"\r\n        );\r\n    }\r\n\r\n    function addRawMaterial(\r\n        uint256 _price,\r\n        string memory _rawMaterial\r\n    ) public onlyTM {\r\n        require(_price > 0, \"Asset price must be greater than 0\");\r\n        require(bytes(_rawMaterial).length != 0, \"Raw material is not valid\");\r\n        uint8 assetState = 1;  //set nilai state awal aset\r\n        uint256 id = ++assetIdCounter; //generate id aset baru\r\n        uint8 trackerNumber = 1; //set nomor penelusuran\r\n        payableAssetsById[id] = AssetPayable(\r\n            trackerNumber,\r\n            assetState,\r\n            _price,\r\n            payable(msg.sender)\r\n        );\r\n        addAsset(msg.sender, id); //penambahan aset kepunyaan aktor\r\n        uint256 time = block.timestamp;\r\n        uint8 buyStatus = tracerAssets[id][trackerNumber].buyStatus;\r\n        tracerAssets[id][trackerNumber] = AssetTracer(\r\n            assetState,\r\n            msg.sender,\r\n            _price,\r\n            time,\r\n            buyStatus\r\n        );\r\n\r\n        fabricDetailsById[id] = FabricDetail(\r\n            id,\r\n            _rawMaterial,\r\n            fabricDetailsById[id].threadType,\r\n            fabricDetailsById[id].threadQuality,\r\n            fabricDetailsById[id].dyeType,\r\n            fabricDetailsById[id].pattern,\r\n            fabricDetailsById[id].origin,\r\n            fabricDetailsById[id].fabricType\r\n        );\r\n\r\n        emit AssetInitiated(\r\n            id,\r\n            msg.sender,\r\n            _price,\r\n            \"Asset (Raw Material) was successfully initiated\"\r\n        );\r\n    }\r\n\r\n    function createThread(uint256 _assetId, uint256 _price, string memory _threadType, string memory _threadQuality) public onlyTM {\r\n        require(\r\n            payableAssetsById[_assetId].state == 1,\r\n            \"Asset initial state is not correct\"\r\n        );\r\n        require(\r\n            haveAsset(msg.sender, _assetId),\r\n            \"This actor don't have the asset that want to be processed\"\r\n        );\r\n        require(_price > 0, \"Asset price must be greater than 0\");\r\n        uint8 oldState = payableAssetsById[_assetId].state; //menyimpan state aset sebelumnya\r\n        payableAssetsById[_assetId].state++; //memperbarui state aset\r\n        payableAssetsById[_assetId].trackerNumber++; //memperbarui nomor penelusuran\r\n        payableAssetsById[_assetId] = AssetPayable(\r\n            payableAssetsById[_assetId].trackerNumber,\r\n            payableAssetsById[_assetId].state,\r\n            _price,\r\n            payable(msg.sender)\r\n        );\r\n        uint256 time = block.timestamp; //menyimpan waktu tx\r\n        uint8 buyStatus = tracerAssets[_assetId][\r\n            payableAssetsById[_assetId].trackerNumber\r\n        ].buyStatus;\r\n        tracerAssets[_assetId][\r\n            payableAssetsById[_assetId].trackerNumber\r\n        ] = AssetTracer(\r\n            payableAssetsById[_assetId].state,\r\n            msg.sender,\r\n            _price,\r\n            time,\r\n            buyStatus\r\n        );\r\n        fabricDetailsById[_assetId] = FabricDetail(\r\n            fabricDetailsById[_assetId].id,\r\n            fabricDetailsById[_assetId].rawMaterial,\r\n            _threadType,\r\n            _threadQuality,\r\n            fabricDetailsById[_assetId].dyeType,\r\n            fabricDetailsById[_assetId].pattern,\r\n            fabricDetailsById[_assetId].origin,\r\n            fabricDetailsById[_assetId].fabricType\r\n        );\r\n        emit AssetProcessed(\r\n            _assetId,\r\n            oldState,\r\n            payableAssetsById[_assetId].state,\r\n            msg.sender,\r\n            _price,\r\n            \"Asset (Thread) was succesfully created!\"\r\n        );\r\n    }\r\n\r\n    function distributeThread(uint256 _assetId, uint256 _price) public onlyTD {\r\n        require(\r\n            payableAssetsById[_assetId].state == 2,\r\n            \"Asset initial state is not correct\"\r\n        );\r\n        require(\r\n            haveAsset(msg.sender, _assetId),\r\n            \"This actor don't have the asset that want to be processed\"\r\n        );\r\n        require(_price > 0, \"Asset price must be greater than 0\");\r\n        uint8 oldState = payableAssetsById[_assetId].state;\r\n        payableAssetsById[_assetId].state++;\r\n        payableAssetsById[_assetId].trackerNumber++;\r\n        payableAssetsById[_assetId] = AssetPayable(\r\n            payableAssetsById[_assetId].trackerNumber,\r\n            payableAssetsById[_assetId].state,\r\n            _price,\r\n            payable(msg.sender)\r\n        );\r\n        uint256 time = block.timestamp;\r\n        uint8 buyStatus = tracerAssets[_assetId][\r\n            payableAssetsById[_assetId].trackerNumber\r\n        ].buyStatus;\r\n        tracerAssets[_assetId][\r\n            payableAssetsById[_assetId].trackerNumber\r\n        ] = AssetTracer(\r\n            payableAssetsById[_assetId].state,\r\n            msg.sender,\r\n            _price,\r\n            time,\r\n            buyStatus\r\n        );\r\n        emit AssetProcessed(\r\n            _assetId,\r\n            oldState,\r\n            payableAssetsById[_assetId].state,\r\n            msg.sender,\r\n            _price,\r\n            \"Asset (Thread) was successfully distributed\"\r\n        );\r\n    }\r\n\r\n    function fabricWeaving(uint256 _assetId, uint256 _price, uint8 _dyeType, string memory _pattern, string memory _origin, uint8 _fabricType) public onlyWeaver {\r\n        require(\r\n            payableAssetsById[_assetId].state == 3,\r\n            \"Asset initial state is not correct\"\r\n        );\r\n        require(\r\n            haveAsset(msg.sender, _assetId),\r\n            \"This actor don't have the asset that want to be processed\"\r\n        );\r\n        require(_price > 0, \"Asset price must be greater than 0\");\r\n        uint8 oldState = payableAssetsById[_assetId].state;\r\n        payableAssetsById[_assetId].state++;\r\n        payableAssetsById[_assetId].trackerNumber++;\r\n        payableAssetsById[_assetId] = AssetPayable(\r\n            payableAssetsById[_assetId].trackerNumber,\r\n            payableAssetsById[_assetId].state,\r\n            _price,\r\n            payable(msg.sender)\r\n        );\r\n        uint256 time = block.timestamp;\r\n        uint8 buyStatus = tracerAssets[_assetId][\r\n            payableAssetsById[_assetId].trackerNumber\r\n        ].buyStatus;\r\n        tracerAssets[_assetId][\r\n            payableAssetsById[_assetId].trackerNumber\r\n        ] = AssetTracer(\r\n            payableAssetsById[_assetId].state,\r\n            msg.sender,\r\n            _price,\r\n            time,\r\n            buyStatus\r\n        );\r\n        \r\n        fabricDetailsById[_assetId] = FabricDetail(\r\n            fabricDetailsById[_assetId].id,\r\n            fabricDetailsById[_assetId].rawMaterial,\r\n            fabricDetailsById[_assetId].threadType,\r\n            fabricDetailsById[_assetId].threadQuality,\r\n            _dyeType,\r\n            _pattern,\r\n            _origin,\r\n            _fabricType\r\n        );\r\n        emit AssetProcessed(\r\n            _assetId,\r\n            oldState,\r\n            payableAssetsById[_assetId].state,\r\n            msg.sender,\r\n            _price,\r\n            \"Asset (Woven Fabric) was successfully woven\"\r\n        );\r\n    }\r\n\r\n    function sellFabric(uint256 _assetId, uint256 _price) public onlyRetailer {\r\n        require(\r\n            payableAssetsById[_assetId].state == 4,\r\n            \"Asset initial state is not correct\"\r\n        );\r\n        require(\r\n            haveAsset(msg.sender, _assetId),\r\n            \"This actor don't have the asset that want to be processed\"\r\n        );\r\n        require(_price > 0, \"Asset price must be greater than 0\");\r\n        uint8 oldState = payableAssetsById[_assetId].state;\r\n        payableAssetsById[_assetId].state++;\r\n        payableAssetsById[_assetId].trackerNumber++;\r\n        payableAssetsById[_assetId] = AssetPayable(\r\n            payableAssetsById[_assetId].trackerNumber,\r\n            payableAssetsById[_assetId].state,\r\n            _price,\r\n            payable(msg.sender)\r\n        );\r\n        uint256 time = block.timestamp;\r\n        uint8 buyStatus = tracerAssets[_assetId][\r\n            payableAssetsById[_assetId].trackerNumber\r\n        ].buyStatus;\r\n        tracerAssets[_assetId][\r\n            payableAssetsById[_assetId].trackerNumber\r\n        ] = AssetTracer(\r\n            payableAssetsById[_assetId].state,\r\n            msg.sender,\r\n            _price,\r\n            time,\r\n            buyStatus\r\n        );\r\n        emit AssetProcessed(\r\n            _assetId,\r\n            oldState,\r\n            payableAssetsById[_assetId].state,\r\n            msg.sender,\r\n            _price,\r\n            \"Woven fabric sold to customer\"\r\n        );\r\n    }\r\n\r\n    function purchaseAsset(uint256 _assetId) public payable {\r\n        require(\r\n            _assetId > 0 && _assetId <= assetIdCounter,\r\n            \"Asset Id is not valid\"\r\n        );\r\n        require(\r\n            msg.value >= payableAssetsById[_assetId].price,\r\n            \"Transfer amount is not correct\"\r\n        );\r\n        require(\r\n            tracerAssets[_assetId][payableAssetsById[_assetId].trackerNumber]\r\n                .actorAddress != msg.sender,\r\n            \"Seller cant sell Asset to himself\"\r\n        );\r\n\r\n        payableAssetsById[_assetId].trackerNumber++;\r\n        payableAssetsById[_assetId] = AssetPayable(\r\n            payableAssetsById[_assetId].trackerNumber,\r\n            payableAssetsById[_assetId].state,\r\n            payableAssetsById[_assetId].price,\r\n            payableAssetsById[_assetId].recentOwner\r\n        );\r\n\r\n        uint256 time = block.timestamp;\r\n        uint8 buyStatus = 0;\r\n        buyStatus++; //memperbarui status aset sudah terbeli\r\n        tracerAssets[_assetId][\r\n            payableAssetsById[_assetId].trackerNumber\r\n        ] = AssetTracer(\r\n            payableAssetsById[_assetId].state,\r\n            msg.sender,\r\n            payableAssetsById[_assetId].price,\r\n            time,\r\n            buyStatus\r\n        );\r\n        removeAsset(payableAssetsById[_assetId].recentOwner, _assetId); //menghapus aset kepunyaan setelah berhasil dijual\r\n        addAsset(msg.sender, _assetId); //menambah aset kepunyaan setelah berhasil membeli\r\n        payableAssetsById[_assetId].recentOwner.transfer(msg.value); //proses transfer saldo/harga aset\r\n        emit AssetPurchased(\r\n            _assetId,\r\n            payableAssetsById[_assetId].recentOwner,\r\n            msg.sender,\r\n            payableAssetsById[_assetId].state,\r\n            payableAssetsById[_assetId].price,\r\n            \"Asset successfully bought\"\r\n        );\r\n    }\r\n\r\n    //private function\r\n    function addAsset(address _address, uint256 _assetId) private {\r\n        actorAssetsByAddress[_address].push(\r\n            ActorAsset(_assetId, block.timestamp)\r\n        );\r\n        emit AssetAdded(_address, _assetId, \"New asset has been added\");\r\n    }\r\n\r\n    function haveAsset(\r\n        address _address,\r\n        uint256 _assetId\r\n    ) private view returns (bool) {\r\n        ActorAsset[] memory temp = actorAssetsByAddress[_address];\r\n        for (uint256 i = 0; i < temp.length; i++) {\r\n            if (temp[i].id == _assetId) {\r\n                return true;\r\n            }\r\n        }\r\n        return false;\r\n    }\r\n\r\n    function removeAsset(address _address, uint256 _assetId) private {\r\n        ActorAsset[] storage temp = actorAssetsByAddress[_address];\r\n        for (uint256 i = 0; i < temp.length; i++) {\r\n            if (temp[i].id == _assetId) {\r\n                delete temp[i];\r\n                break;\r\n            }\r\n        }\r\n    }\r\n}",
  "sourcePath": "C:\\Users\\Diky Wiraguna\\Desktop\\weave-chain-dapp\\contracts\\WeaveChain.sol",
  "compiler": {
    "name": "solc",
    "version": "0.8.18+commit.87f61d96.Emscripten.clang"
  },
  "schemaVersion": "3.4.16",
  "updatedAt": "2023-12-02T23:47:12.930Z",
  "networkType": "ethereum",
  "devdoc": {
    "kind": "dev",
    "methods": {},
    "version": 1
  },
  "userdoc": {
    "kind": "user",
    "methods": {},
    "version": 1
  }
}